{
  "_format": "hh-sol-artifact-1",
  "contractName": "FormsEscrow",
  "sourceName": "contracts/forms_escrow.sol",
  "abi": [
    {
      "inputs": [],
      "stateMutability": "nonpayable",
      "type": "constructor"
    },
    {
      "inputs": [
        {
          "internalType": "string",
          "name": "_name",
          "type": "string"
        },
        {
          "internalType": "string",
          "name": "_formId",
          "type": "string"
        },
        {
          "internalType": "uint256",
          "name": "cpr",
          "type": "uint256"
        },
        {
          "internalType": "uint256",
          "name": "funds_to_distribute",
          "type": "uint256"
        },
        {
          "internalType": "uint32",
          "name": "endDate",
          "type": "uint32"
        },
        {
          "internalType": "uint32",
          "name": "startDate",
          "type": "uint32"
        },
        {
          "internalType": "address",
          "name": "creator",
          "type": "address"
        },
        {
          "internalType": "address",
          "name": "UID",
          "type": "address"
        }
      ],
      "name": "CreateEscrow",
      "outputs": [],
      "stateMutability": "payable",
      "type": "function"
    },
    {
      "inputs": [
        {
          "internalType": "address",
          "name": "",
          "type": "address"
        }
      ],
      "name": "EscrowList",
      "outputs": [
        {
          "internalType": "string",
          "name": "formId",
          "type": "string"
        },
        {
          "internalType": "uint256",
          "name": "budget",
          "type": "uint256"
        },
        {
          "internalType": "uint256",
          "name": "cost_per_response",
          "type": "uint256"
        },
        {
          "internalType": "uint256",
          "name": "funds_to_distribute",
          "type": "uint256"
        },
        {
          "internalType": "uint32",
          "name": "start_date",
          "type": "uint32"
        },
        {
          "internalType": "uint32",
          "name": "end_date",
          "type": "uint32"
        },
        {
          "internalType": "string",
          "name": "name",
          "type": "string"
        },
        {
          "internalType": "address",
          "name": "creator",
          "type": "address"
        }
      ],
      "stateMutability": "view",
      "type": "function"
    },
    {
      "inputs": [],
      "name": "getContractTotalAmount",
      "outputs": [
        {
          "internalType": "uint256",
          "name": "",
          "type": "uint256"
        }
      ],
      "stateMutability": "view",
      "type": "function"
    },
    {
      "inputs": [
        {
          "internalType": "address",
          "name": "escrowId",
          "type": "address"
        }
      ],
      "name": "getEscrowById",
      "outputs": [
        {
          "components": [
            {
              "internalType": "string",
              "name": "formId",
              "type": "string"
            },
            {
              "internalType": "uint256",
              "name": "budget",
              "type": "uint256"
            },
            {
              "internalType": "uint256",
              "name": "cost_per_response",
              "type": "uint256"
            },
            {
              "internalType": "uint256",
              "name": "funds_to_distribute",
              "type": "uint256"
            },
            {
              "internalType": "uint32",
              "name": "start_date",
              "type": "uint32"
            },
            {
              "internalType": "uint32",
              "name": "end_date",
              "type": "uint32"
            },
            {
              "internalType": "string",
              "name": "name",
              "type": "string"
            },
            {
              "internalType": "address",
              "name": "creator",
              "type": "address"
            }
          ],
          "internalType": "struct FormsEscrow.Escrow",
          "name": "",
          "type": "tuple"
        }
      ],
      "stateMutability": "view",
      "type": "function"
    },
    {
      "inputs": [],
      "name": "owner",
      "outputs": [
        {
          "internalType": "address payable",
          "name": "",
          "type": "address"
        }
      ],
      "stateMutability": "view",
      "type": "function"
    },
    {
      "inputs": [
        {
          "internalType": "address",
          "name": "_to",
          "type": "address"
        },
        {
          "internalType": "address",
          "name": "escrowId",
          "type": "address"
        }
      ],
      "name": "reward",
      "outputs": [],
      "stateMutability": "nonpayable",
      "type": "function"
    }
  ],
  "bytecode": "0x608060405234801561001057600080fd5b50336000806101000a81548173ffffffffffffffffffffffffffffffffffffffff021916908373ffffffffffffffffffffffffffffffffffffffff1602179055506115e0806100606000396000f3fe6080604052600436106100555760003560e01c80630a82f5cc1461005a5780634d5b0081146100765780637e3e66021461009f5780638da5cb5b146100ca578063e667428d146100f5578063fe5f46db14610139575b600080fd5b610074600480360381019061006f9190610c5c565b610176565b005b34801561008257600080fd5b5061009d60048036038101906100989190610d53565b61038d565b005b3480156100ab57600080fd5b506100b46106af565b6040516100c19190610da2565b60405180910390f35b3480156100d657600080fd5b506100df6106bc565b6040516100ec9190610dde565b60405180910390f35b34801561010157600080fd5b5061011c60048036038101906101179190610df9565b6106e0565b604051610130989796959493929190610ed4565b60405180910390f35b34801561014557600080fd5b50610160600480360381019061015b9190610df9565b610878565b60405161016d919061108e565b60405180910390f35b60003490506040518061010001604052808a8a8080601f016020809104026020016040519081016040528093929190818152602001838380828437600081840152601f19601f8201169050808301925050505050505081526020018281526020018881526020018781526020018563ffffffff1681526020018663ffffffff1681526020018c8c8080601f016020809104026020016040519081016040528093929190818152602001838380828437600081840152601f19601f8201169050808301925050505050505081526020018473ffffffffffffffffffffffffffffffffffffffff16815250600160008473ffffffffffffffffffffffffffffffffffffffff1673ffffffffffffffffffffffffffffffffffffffff16815260200190815260200160002060008201518160000190816102b391906112eb565b5060208201518160010155604082015181600201556060820151816003015560808201518160040160006101000a81548163ffffffff021916908363ffffffff16021790555060a08201518160040160046101000a81548163ffffffff021916908363ffffffff16021790555060c082015181600501908161033591906112eb565b5060e08201518160060160006101000a81548173ffffffffffffffffffffffffffffffffffffffff021916908373ffffffffffffffffffffffffffffffffffffffff1602179055509050505050505050505050505050565b60008054906101000a900473ffffffffffffffffffffffffffffffffffffffff1673ffffffffffffffffffffffffffffffffffffffff163373ffffffffffffffffffffffffffffffffffffffff161461041b576040517f08c379a000000000000000000000000000000000000000000000000000000000815260040161041290611409565b60405180910390fd5b600160008273ffffffffffffffffffffffffffffffffffffffff1673ffffffffffffffffffffffffffffffffffffffff16815260200190815260200160002060030154600160008373ffffffffffffffffffffffffffffffffffffffff1673ffffffffffffffffffffffffffffffffffffffff16815260200190815260200160002060020154808210156104e4576040517f08c379a00000000000000000000000000000000000000000000000000000000081526004016104db90611475565b60405180910390fd5b600160008473ffffffffffffffffffffffffffffffffffffffff1673ffffffffffffffffffffffffffffffffffffffff16815260200190815260200160002060020154600160008573ffffffffffffffffffffffffffffffffffffffff1673ffffffffffffffffffffffffffffffffffffffff1681526020019081526020016000206003015461057491906114c4565b600160008573ffffffffffffffffffffffffffffffffffffffff1673ffffffffffffffffffffffffffffffffffffffff1681526020019081526020016000206003018190555060008473ffffffffffffffffffffffffffffffffffffffff16600160008673ffffffffffffffffffffffffffffffffffffffff1673ffffffffffffffffffffffffffffffffffffffff1681526020019081526020016000206002015460405161062290611529565b60006040518083038185875af1925050503d806000811461065f576040519150601f19603f3d011682016040523d82523d6000602084013e610664565b606091505b50509050806106a8576040517f08c379a000000000000000000000000000000000000000000000000000000000815260040161069f9061158a565b60405180910390fd5b5050505050565b6000804790508091505090565b60008054906101000a900473ffffffffffffffffffffffffffffffffffffffff1681565b60016020528060005260406000206000915090508060000180546107039061110e565b80601f016020809104026020016040519081016040528092919081815260200182805461072f9061110e565b801561077c5780601f106107515761010080835404028352916020019161077c565b820191906000526020600020905b81548152906001019060200180831161075f57829003601f168201915b5050505050908060010154908060020154908060030154908060040160009054906101000a900463ffffffff16908060040160049054906101000a900463ffffffff16908060050180546107cf9061110e565b80601f01602080910402602001604051908101604052809291908181526020018280546107fb9061110e565b80156108485780601f1061081d57610100808354040283529160200191610848565b820191906000526020600020905b81548152906001019060200180831161082b57829003601f168201915b5050505050908060060160009054906101000a900473ffffffffffffffffffffffffffffffffffffffff16905088565b610880610ab6565b600160008373ffffffffffffffffffffffffffffffffffffffff1673ffffffffffffffffffffffffffffffffffffffff168152602001908152602001600020604051806101000160405290816000820180546108db9061110e565b80601f01602080910402602001604051908101604052809291908181526020018280546109079061110e565b80156109545780601f1061092957610100808354040283529160200191610954565b820191906000526020600020905b81548152906001019060200180831161093757829003601f168201915b505050505081526020016001820154815260200160028201548152602001600382015481526020016004820160009054906101000a900463ffffffff1663ffffffff1663ffffffff1681526020016004820160049054906101000a900463ffffffff1663ffffffff1663ffffffff1681526020016005820180546109d79061110e565b80601f0160208091040260200160405190810160405280929190818152602001828054610a039061110e565b8015610a505780601f10610a2557610100808354040283529160200191610a50565b820191906000526020600020905b815481529060010190602001808311610a3357829003601f168201915b505050505081526020016006820160009054906101000a900473ffffffffffffffffffffffffffffffffffffffff1673ffffffffffffffffffffffffffffffffffffffff1673ffffffffffffffffffffffffffffffffffffffff16815250509050919050565b60405180610100016040528060608152602001600081526020016000815260200160008152602001600063ffffffff168152602001600063ffffffff16815260200160608152602001600073ffffffffffffffffffffffffffffffffffffffff1681525090565b600080fd5b600080fd5b600080fd5b600080fd5b600080fd5b60008083601f840112610b4c57610b4b610b27565b5b8235905067ffffffffffffffff811115610b6957610b68610b2c565b5b602083019150836001820283011115610b8557610b84610b31565b5b9250929050565b6000819050919050565b610b9f81610b8c565b8114610baa57600080fd5b50565b600081359050610bbc81610b96565b92915050565b600063ffffffff82169050919050565b610bdb81610bc2565b8114610be657600080fd5b50565b600081359050610bf881610bd2565b92915050565b600073ffffffffffffffffffffffffffffffffffffffff82169050919050565b6000610c2982610bfe565b9050919050565b610c3981610c1e565b8114610c4457600080fd5b50565b600081359050610c5681610c30565b92915050565b6000806000806000806000806000806101008b8d031215610c8057610c7f610b1d565b5b60008b013567ffffffffffffffff811115610c9e57610c9d610b22565b5b610caa8d828e01610b36565b9a509a505060208b013567ffffffffffffffff811115610ccd57610ccc610b22565b5b610cd98d828e01610b36565b98509850506040610cec8d828e01610bad565b9650506060610cfd8d828e01610bad565b9550506080610d0e8d828e01610be9565b94505060a0610d1f8d828e01610be9565b93505060c0610d308d828e01610c47565b92505060e0610d418d828e01610c47565b9150509295989b9194979a5092959850565b60008060408385031215610d6a57610d69610b1d565b5b6000610d7885828601610c47565b9250506020610d8985828601610c47565b9150509250929050565b610d9c81610b8c565b82525050565b6000602082019050610db76000830184610d93565b92915050565b6000610dc882610bfe565b9050919050565b610dd881610dbd565b82525050565b6000602082019050610df36000830184610dcf565b92915050565b600060208284031215610e0f57610e0e610b1d565b5b6000610e1d84828501610c47565b91505092915050565b600081519050919050565b600082825260208201905092915050565b60005b83811015610e60578082015181840152602081019050610e45565b60008484015250505050565b6000601f19601f8301169050919050565b6000610e8882610e26565b610e928185610e31565b9350610ea2818560208601610e42565b610eab81610e6c565b840191505092915050565b610ebf81610bc2565b82525050565b610ece81610c1e565b82525050565b6000610100820190508181036000830152610eef818b610e7d565b9050610efe602083018a610d93565b610f0b6040830189610d93565b610f186060830188610d93565b610f256080830187610eb6565b610f3260a0830186610eb6565b81810360c0830152610f448185610e7d565b9050610f5360e0830184610ec5565b9998505050505050505050565b600082825260208201905092915050565b6000610f7c82610e26565b610f868185610f60565b9350610f96818560208601610e42565b610f9f81610e6c565b840191505092915050565b610fb381610b8c565b82525050565b610fc281610bc2565b82525050565b610fd181610c1e565b82525050565b6000610100830160008301518482036000860152610ff58282610f71565b915050602083015161100a6020860182610faa565b50604083015161101d6040860182610faa565b5060608301516110306060860182610faa565b5060808301516110436080860182610fb9565b5060a083015161105660a0860182610fb9565b5060c083015184820360c086015261106e8282610f71565b91505060e083015161108360e0860182610fc8565b508091505092915050565b600060208201905081810360008301526110a88184610fd7565b905092915050565b7f4e487b7100000000000000000000000000000000000000000000000000000000600052604160045260246000fd5b7f4e487b7100000000000000000000000000000000000000000000000000000000600052602260045260246000fd5b6000600282049050600182168061112657607f821691505b602082108103611139576111386110df565b5b50919050565b60008190508160005260206000209050919050565b60006020601f8301049050919050565b600082821b905092915050565b6000600883026111a17fffffffffffffffffffffffffffffffffffffffffffffffffffffffffffffffff82611164565b6111ab8683611164565b95508019841693508086168417925050509392505050565b6000819050919050565b60006111e86111e36111de84610b8c565b6111c3565b610b8c565b9050919050565b6000819050919050565b611202836111cd565b61121661120e826111ef565b848454611171565b825550505050565b600090565b61122b61121e565b6112368184846111f9565b505050565b5b8181101561125a5761124f600082611223565b60018101905061123c565b5050565b601f82111561129f576112708161113f565b61127984611154565b81016020851015611288578190505b61129c61129485611154565b83018261123b565b50505b505050565b600082821c905092915050565b60006112c2600019846008026112a4565b1980831691505092915050565b60006112db83836112b1565b9150826002028217905092915050565b6112f482610e26565b67ffffffffffffffff81111561130d5761130c6110b0565b5b611317825461110e565b61132282828561125e565b600060209050601f8311600181146113555760008415611343578287015190505b61134d85826112cf565b8655506113b5565b601f1984166113638661113f565b60005b8281101561138b57848901518255600182019150602085019450602081019050611366565b868310156113a857848901516113a4601f8916826112b1565b8355505b6001600288020188555050505b505050505050565b7f4e6f7420656c696769626c650000000000000000000000000000000000000000600082015250565b60006113f3600c83610e31565b91506113fe826113bd565b602082019050919050565b60006020820190508181036000830152611422816113e6565b9050919050565b7f4e6f7420656e6f7567682066756e647300000000000000000000000000000000600082015250565b600061145f601083610e31565b915061146a82611429565b602082019050919050565b6000602082019050818103600083015261148e81611452565b9050919050565b7f4e487b7100000000000000000000000000000000000000000000000000000000600052601160045260246000fd5b60006114cf82610b8c565b91506114da83610b8c565b92508282039050818111156114f2576114f1611495565b5b92915050565b600081905092915050565b50565b60006115136000836114f8565b915061151e82611503565b600082019050919050565b600061153482611506565b9150819050919050565b7f4661696c656420746f207472616e736665722072657761726400000000000000600082015250565b6000611574601983610e31565b915061157f8261153e565b602082019050919050565b600060208201905081810360008301526115a381611567565b905091905056fea2646970667358221220ca34cbdb6eb7ea9663981c27dc67ecdd6c6c7c0f18b4138758c0b997a650d7e664736f6c63430008130033",
  "linkReferences": {},
  "deployedLinkReferences": {}
}